{
  "_format": "hh-sol-artifact-1",
  "contractName": "YoloStock",
  "sourceName": "contracts/YoloStock.sol",
  "abi": [
    {
      "inputs": [
        {
          "internalType": "string",
          "name": "name",
          "type": "string"
        },
        {
          "internalType": "string",
          "name": "symbol",
          "type": "string"
        },
        {
          "internalType": "string",
          "name": "_creatorName",
          "type": "string"
        },
        {
          "internalType": "string",
          "name": "_description",
          "type": "string"
        },
        {
          "internalType": "address",
          "name": "_yoloTokenAddress",
          "type": "address"
        },
        {
          "internalType": "address",
          "name": "initialOwner",
          "type": "address"
        },
        {
          "internalType": "uint256",
          "name": "initialSupply",
          "type": "uint256"
        },
        {
          "internalType": "uint256",
          "name": "_basePrice",
          "type": "uint256"
        }
      ],
      "stateMutability": "nonpayable",
      "type": "constructor"
    },
    {
      "inputs": [
        {
          "internalType": "address",
          "name": "spender",
          "type": "address"
        },
        {
          "internalType": "uint256",
          "name": "allowance",
          "type": "uint256"
        },
        {
          "internalType": "uint256",
          "name": "needed",
          "type": "uint256"
        }
      ],
      "name": "ERC20InsufficientAllowance",
      "type": "error"
    },
    {
      "inputs": [
        {
          "internalType": "address",
          "name": "sender",
          "type": "address"
        },
        {
          "internalType": "uint256",
          "name": "balance",
          "type": "uint256"
        },
        {
          "internalType": "uint256",
          "name": "needed",
          "type": "uint256"
        }
      ],
      "name": "ERC20InsufficientBalance",
      "type": "error"
    },
    {
      "inputs": [
        {
          "internalType": "address",
          "name": "approver",
          "type": "address"
        }
      ],
      "name": "ERC20InvalidApprover",
      "type": "error"
    },
    {
      "inputs": [
        {
          "internalType": "address",
          "name": "receiver",
          "type": "address"
        }
      ],
      "name": "ERC20InvalidReceiver",
      "type": "error"
    },
    {
      "inputs": [
        {
          "internalType": "address",
          "name": "sender",
          "type": "address"
        }
      ],
      "name": "ERC20InvalidSender",
      "type": "error"
    },
    {
      "inputs": [
        {
          "internalType": "address",
          "name": "spender",
          "type": "address"
        }
      ],
      "name": "ERC20InvalidSpender",
      "type": "error"
    },
    {
      "inputs": [
        {
          "internalType": "address",
          "name": "owner",
          "type": "address"
        }
      ],
      "name": "OwnableInvalidOwner",
      "type": "error"
    },
    {
      "inputs": [
        {
          "internalType": "address",
          "name": "account",
          "type": "address"
        }
      ],
      "name": "OwnableUnauthorizedAccount",
      "type": "error"
    },
    {
      "inputs": [],
      "name": "ReentrancyGuardReentrantCall",
      "type": "error"
    },
    {
      "anonymous": false,
      "inputs": [
        {
          "indexed": true,
          "internalType": "address",
          "name": "owner",
          "type": "address"
        },
        {
          "indexed": true,
          "internalType": "address",
          "name": "spender",
          "type": "address"
        },
        {
          "indexed": false,
          "internalType": "uint256",
          "name": "value",
          "type": "uint256"
        }
      ],
      "name": "Approval",
      "type": "event"
    },
    {
      "anonymous": false,
      "inputs": [
        {
          "indexed": true,
          "internalType": "address",
          "name": "provider",
          "type": "address"
        },
        {
          "indexed": false,
          "internalType": "uint256",
          "name": "stockAmount",
          "type": "uint256"
        },
        {
          "indexed": false,
          "internalType": "uint256",
          "name": "yoloAmount",
          "type": "uint256"
        }
      ],
      "name": "LiquidityAdded",
      "type": "event"
    },
    {
      "anonymous": false,
      "inputs": [
        {
          "indexed": true,
          "internalType": "address",
          "name": "previousOwner",
          "type": "address"
        },
        {
          "indexed": true,
          "internalType": "address",
          "name": "newOwner",
          "type": "address"
        }
      ],
      "name": "OwnershipTransferred",
      "type": "event"
    },
    {
      "anonymous": false,
      "inputs": [
        {
          "indexed": false,
          "internalType": "uint256",
          "name": "oldPrice",
          "type": "uint256"
        },
        {
          "indexed": false,
          "internalType": "uint256",
          "name": "newPrice",
          "type": "uint256"
        }
      ],
      "name": "PriceUpdated",
      "type": "event"
    },
    {
      "anonymous": false,
      "inputs": [
        {
          "indexed": true,
          "internalType": "address",
          "name": "minter",
          "type": "address"
        },
        {
          "indexed": false,
          "internalType": "uint256",
          "name": "minterAmount",
          "type": "uint256"
        },
        {
          "indexed": true,
          "internalType": "address",
          "name": "liquidityPool",
          "type": "address"
        },
        {
          "indexed": false,
          "internalType": "uint256",
          "name": "liquidityAmount",
          "type": "uint256"
        },
        {
          "indexed": false,
          "internalType": "uint256",
          "name": "totalStockAmount",
          "type": "uint256"
        }
      ],
      "name": "TokensMinted",
      "type": "event"
    },
    {
      "anonymous": false,
      "inputs": [
        {
          "indexed": true,
          "internalType": "address",
          "name": "trader",
          "type": "address"
        },
        {
          "indexed": false,
          "internalType": "bool",
          "name": "isBuy",
          "type": "bool"
        },
        {
          "indexed": false,
          "internalType": "uint256",
          "name": "stockAmount",
          "type": "uint256"
        },
        {
          "indexed": false,
          "internalType": "uint256",
          "name": "yoloAmount",
          "type": "uint256"
        },
        {
          "indexed": false,
          "internalType": "uint256",
          "name": "newPrice",
          "type": "uint256"
        }
      ],
      "name": "Trade",
      "type": "event"
    },
    {
      "anonymous": false,
      "inputs": [
        {
          "indexed": true,
          "internalType": "address",
          "name": "from",
          "type": "address"
        },
        {
          "indexed": true,
          "internalType": "address",
          "name": "to",
          "type": "address"
        },
        {
          "indexed": false,
          "internalType": "uint256",
          "name": "value",
          "type": "uint256"
        }
      ],
      "name": "Transfer",
      "type": "event"
    },
    {
      "inputs": [],
      "name": "PRICE_MULTIPLIER",
      "outputs": [
        {
          "internalType": "uint256",
          "name": "",
          "type": "uint256"
        }
      ],
      "stateMutability": "view",
      "type": "function"
    },
    {
      "inputs": [
        {
          "internalType": "uint256",
          "name": "stockAmount",
          "type": "uint256"
        },
        {
          "internalType": "uint256",
          "name": "yoloAmount",
          "type": "uint256"
        }
      ],
      "name": "addLiquidity",
      "outputs": [],
      "stateMutability": "nonpayable",
      "type": "function"
    },
    {
      "inputs": [
        {
          "internalType": "address",
          "name": "owner",
          "type": "address"
        },
        {
          "internalType": "address",
          "name": "spender",
          "type": "address"
        }
      ],
      "name": "allowance",
      "outputs": [
        {
          "internalType": "uint256",
          "name": "",
          "type": "uint256"
        }
      ],
      "stateMutability": "view",
      "type": "function"
    },
    {
      "inputs": [
        {
          "internalType": "address",
          "name": "spender",
          "type": "address"
        },
        {
          "internalType": "uint256",
          "name": "value",
          "type": "uint256"
        }
      ],
      "name": "approve",
      "outputs": [
        {
          "internalType": "bool",
          "name": "",
          "type": "bool"
        }
      ],
      "stateMutability": "nonpayable",
      "type": "function"
    },
    {
      "inputs": [
        {
          "internalType": "address",
          "name": "account",
          "type": "address"
        }
      ],
      "name": "balanceOf",
      "outputs": [
        {
          "internalType": "uint256",
          "name": "",
          "type": "uint256"
        }
      ],
      "stateMutability": "view",
      "type": "function"
    },
    {
      "inputs": [],
      "name": "basePrice",
      "outputs": [
        {
          "internalType": "uint256",
          "name": "",
          "type": "uint256"
        }
      ],
      "stateMutability": "view",
      "type": "function"
    },
    {
      "inputs": [
        {
          "internalType": "address",
          "name": "from",
          "type": "address"
        },
        {
          "internalType": "uint256",
          "name": "amount",
          "type": "uint256"
        }
      ],
      "name": "burn",
      "outputs": [],
      "stateMutability": "nonpayable",
      "type": "function"
    },
    {
      "inputs": [
        {
          "internalType": "uint256",
          "name": "stockAmount",
          "type": "uint256"
        },
        {
          "internalType": "uint256",
          "name": "maxYoloAmount",
          "type": "uint256"
        }
      ],
      "name": "buyStock",
      "outputs": [],
      "stateMutability": "nonpayable",
      "type": "function"
    },
    {
      "inputs": [
        {
          "internalType": "uint256",
          "name": "stockAmount",
          "type": "uint256"
        }
      ],
      "name": "calculateBuyPrice",
      "outputs": [
        {
          "internalType": "uint256",
          "name": "yoloAmount",
          "type": "uint256"
        }
      ],
      "stateMutability": "view",
      "type": "function"
    },
    {
      "inputs": [
        {
          "internalType": "uint256",
          "name": "stockAmount",
          "type": "uint256"
        }
      ],
      "name": "calculateSellPrice",
      "outputs": [
        {
          "internalType": "uint256",
          "name": "yoloAmount",
          "type": "uint256"
        }
      ],
      "stateMutability": "view",
      "type": "function"
    },
    {
      "inputs": [],
      "name": "creatorName",
      "outputs": [
        {
          "internalType": "string",
          "name": "",
          "type": "string"
        }
      ],
      "stateMutability": "view",
      "type": "function"
    },
    {
      "inputs": [],
      "name": "decimals",
      "outputs": [
        {
          "internalType": "uint8",
          "name": "",
          "type": "uint8"
        }
      ],
      "stateMutability": "view",
      "type": "function"
    },
    {
      "inputs": [],
      "name": "description",
      "outputs": [
        {
          "internalType": "string",
          "name": "",
          "type": "string"
        }
      ],
      "stateMutability": "view",
      "type": "function"
    },
    {
      "inputs": [],
      "name": "getCurrentPrice",
      "outputs": [
        {
          "internalType": "uint256",
          "name": "",
          "type": "uint256"
        }
      ],
      "stateMutability": "view",
      "type": "function"
    },
    {
      "inputs": [],
      "name": "getStockInfo",
      "outputs": [
        {
          "internalType": "string",
          "name": "_name",
          "type": "string"
        },
        {
          "internalType": "string",
          "name": "_symbol",
          "type": "string"
        },
        {
          "internalType": "string",
          "name": "_creatorName",
          "type": "string"
        },
        {
          "internalType": "string",
          "name": "_description",
          "type": "string"
        },
        {
          "internalType": "uint256",
          "name": "_launchTimestamp",
          "type": "uint256"
        },
        {
          "internalType": "uint256",
          "name": "_totalSupply",
          "type": "uint256"
        }
      ],
      "stateMutability": "view",
      "type": "function"
    },
    {
      "inputs": [],
      "name": "getTradingInfo",
      "outputs": [
        {
          "internalType": "uint256",
          "name": "currentPrice",
          "type": "uint256"
        },
        {
          "internalType": "uint256",
          "name": "_stockReserve",
          "type": "uint256"
        },
        {
          "internalType": "uint256",
          "name": "_yoloReserve",
          "type": "uint256"
        }
      ],
      "stateMutability": "view",
      "type": "function"
    },
    {
      "inputs": [],
      "name": "launchTimestamp",
      "outputs": [
        {
          "internalType": "uint256",
          "name": "",
          "type": "uint256"
        }
      ],
      "stateMutability": "view",
      "type": "function"
    },
    {
      "inputs": [
        {
          "internalType": "uint256",
          "name": "stockAmount",
          "type": "uint256"
        },
        {
          "internalType": "uint256",
          "name": "yoloAmount",
          "type": "uint256"
        }
      ],
      "name": "mint",
      "outputs": [],
      "stateMutability": "nonpayable",
      "type": "function"
    },
    {
      "inputs": [
        {
          "internalType": "address",
          "name": "to",
          "type": "address"
        },
        {
          "internalType": "uint256",
          "name": "amount",
          "type": "uint256"
        }
      ],
      "name": "mintTo",
      "outputs": [],
      "stateMutability": "nonpayable",
      "type": "function"
    },
    {
      "inputs": [],
      "name": "name",
      "outputs": [
        {
          "internalType": "string",
          "name": "",
          "type": "string"
        }
      ],
      "stateMutability": "view",
      "type": "function"
    },
    {
      "inputs": [],
      "name": "owner",
      "outputs": [
        {
          "internalType": "address",
          "name": "",
          "type": "address"
        }
      ],
      "stateMutability": "view",
      "type": "function"
    },
    {
      "inputs": [],
      "name": "renounceOwnership",
      "outputs": [],
      "stateMutability": "nonpayable",
      "type": "function"
    },
    {
      "inputs": [
        {
          "internalType": "uint256",
          "name": "stockAmount",
          "type": "uint256"
        },
        {
          "internalType": "uint256",
          "name": "minYoloAmount",
          "type": "uint256"
        }
      ],
      "name": "sellStock",
      "outputs": [],
      "stateMutability": "nonpayable",
      "type": "function"
    },
    {
      "inputs": [],
      "name": "stockReserve",
      "outputs": [
        {
          "internalType": "uint256",
          "name": "",
          "type": "uint256"
        }
      ],
      "stateMutability": "view",
      "type": "function"
    },
    {
      "inputs": [],
      "name": "symbol",
      "outputs": [
        {
          "internalType": "string",
          "name": "",
          "type": "string"
        }
      ],
      "stateMutability": "view",
      "type": "function"
    },
    {
      "inputs": [],
      "name": "totalSupply",
      "outputs": [
        {
          "internalType": "uint256",
          "name": "",
          "type": "uint256"
        }
      ],
      "stateMutability": "view",
      "type": "function"
    },
    {
      "inputs": [
        {
          "internalType": "address",
          "name": "to",
          "type": "address"
        },
        {
          "internalType": "uint256",
          "name": "value",
          "type": "uint256"
        }
      ],
      "name": "transfer",
      "outputs": [
        {
          "internalType": "bool",
          "name": "",
          "type": "bool"
        }
      ],
      "stateMutability": "nonpayable",
      "type": "function"
    },
    {
      "inputs": [
        {
          "internalType": "address",
          "name": "from",
          "type": "address"
        },
        {
          "internalType": "address",
          "name": "to",
          "type": "address"
        },
        {
          "internalType": "uint256",
          "name": "value",
          "type": "uint256"
        }
      ],
      "name": "transferFrom",
      "outputs": [
        {
          "internalType": "bool",
          "name": "",
          "type": "bool"
        }
      ],
      "stateMutability": "nonpayable",
      "type": "function"
    },
    {
      "inputs": [
        {
          "internalType": "address",
          "name": "newOwner",
          "type": "address"
        }
      ],
      "name": "transferOwnership",
      "outputs": [],
      "stateMutability": "nonpayable",
      "type": "function"
    },
    {
      "inputs": [
        {
          "internalType": "uint256",
          "name": "_basePrice",
          "type": "uint256"
        }
      ],
      "name": "updateBasePrice",
      "outputs": [],
      "stateMutability": "nonpayable",
      "type": "function"
    },
    {
      "inputs": [
        {
          "internalType": "string",
          "name": "_description",
          "type": "string"
        }
      ],
      "name": "updateDescription",
      "outputs": [],
      "stateMutability": "nonpayable",
      "type": "function"
    },
    {
      "inputs": [],
      "name": "yoloReserve",
      "outputs": [
        {
          "internalType": "uint256",
          "name": "",
          "type": "uint256"
        }
      ],
      "stateMutability": "view",
      "type": "function"
    },
    {
      "inputs": [],
      "name": "yoloTokenAddress",
      "outputs": [
        {
          "internalType": "address",
          "name": "",
          "type": "address"
        }
      ],
      "stateMutability": "view",
      "type": "function"
    }
  ],
  "bytecode": "0x608060405234801561001057600080fd5b506040516140d03803806140d0833981810160405281019061003291906107ab565b82888881600390816100449190610ae8565b5080600490816100549190610ae8565b505050600073ffffffffffffffffffffffffffffffffffffffff168173ffffffffffffffffffffffffffffffffffffffff16036100c95760006040517f1e4fbdf70000000000000000000000000000000000000000000000000000000081526004016100c09190610bc9565b60405180910390fd5b6100d88161022f60201b60201c565b506001600681905550600073ffffffffffffffffffffffffffffffffffffffff168473ffffffffffffffffffffffffffffffffffffffff1603610150576040517f08c379a000000000000000000000000000000000000000000000000000000000815260040161014790610c67565b60405180910390fd5b60008111610193576040517f08c379a000000000000000000000000000000000000000000000000000000000815260040161018a90610cf9565b60405180910390fd5b85600790816101a29190610ae8565b5084600890816101b29190610ae8565b5083600a60006101000a81548173ffffffffffffffffffffffffffffffffffffffff021916908373ffffffffffffffffffffffffffffffffffffffff16021790555080600b819055504260098190555061021283836102f560201b60201c565b6000600d819055506000600c819055505050505050505050610ddd565b6000600560009054906101000a900473ffffffffffffffffffffffffffffffffffffffff16905081600560006101000a81548173ffffffffffffffffffffffffffffffffffffffff021916908373ffffffffffffffffffffffffffffffffffffffff1602179055508173ffffffffffffffffffffffffffffffffffffffff168173ffffffffffffffffffffffffffffffffffffffff167f8be0079c531659141344cd1fd0a4f28419497f9722a3daafe3b4186f6b6457e060405160405180910390a35050565b600073ffffffffffffffffffffffffffffffffffffffff168273ffffffffffffffffffffffffffffffffffffffff16036103675760006040517fec442f0500000000000000000000000000000000000000000000000000000000815260040161035e9190610bc9565b60405180910390fd5b6103796000838361037d60201b60201c565b5050565b600073ffffffffffffffffffffffffffffffffffffffff168373ffffffffffffffffffffffffffffffffffffffff16036103cf5780600260008282546103c39190610d48565b925050819055506104a2565b60008060008573ffffffffffffffffffffffffffffffffffffffff1673ffffffffffffffffffffffffffffffffffffffff1681526020019081526020016000205490508181101561045b578381836040517fe450d38c00000000000000000000000000000000000000000000000000000000815260040161045293929190610d8b565b60405180910390fd5b8181036000808673ffffffffffffffffffffffffffffffffffffffff1673ffffffffffffffffffffffffffffffffffffffff16815260200190815260200160002081905550505b600073ffffffffffffffffffffffffffffffffffffffff168273ffffffffffffffffffffffffffffffffffffffff16036104eb5780600260008282540392505081905550610538565b806000808473ffffffffffffffffffffffffffffffffffffffff1673ffffffffffffffffffffffffffffffffffffffff168152602001908152602001600020600082825401925050819055505b8173ffffffffffffffffffffffffffffffffffffffff168373ffffffffffffffffffffffffffffffffffffffff167fddf252ad1be2c89b69c2b068fc378daa952ba7f163c4a11628f55a4df523b3ef836040516105959190610dc2565b60405180910390a3505050565b6000604051905090565b600080fd5b600080fd5b600080fd5b600080fd5b6000601f19601f8301169050919050565b7f4e487b7100000000000000000000000000000000000000000000000000000000600052604160045260246000fd5b610609826105c0565b810181811067ffffffffffffffff82111715610628576106276105d1565b5b80604052505050565b600061063b6105a2565b90506106478282610600565b919050565b600067ffffffffffffffff821115610667576106666105d1565b5b610670826105c0565b9050602081019050919050565b60005b8381101561069b578082015181840152602081019050610680565b60008484015250505050565b60006106ba6106b58461064c565b610631565b9050828152602081018484840111156106d6576106d56105bb565b5b6106e184828561067d565b509392505050565b600082601f8301126106fe576106fd6105b6565b5b815161070e8482602086016106a7565b91505092915050565b600073ffffffffffffffffffffffffffffffffffffffff82169050919050565b600061074282610717565b9050919050565b61075281610737565b811461075d57600080fd5b50565b60008151905061076f81610749565b92915050565b6000819050919050565b61078881610775565b811461079357600080fd5b50565b6000815190506107a58161077f565b92915050565b600080600080600080600080610100898b0312156107cc576107cb6105ac565b5b600089015167ffffffffffffffff8111156107ea576107e96105b1565b5b6107f68b828c016106e9565b985050602089015167ffffffffffffffff811115610817576108166105b1565b5b6108238b828c016106e9565b975050604089015167ffffffffffffffff811115610844576108436105b1565b5b6108508b828c016106e9565b965050606089015167ffffffffffffffff811115610871576108706105b1565b5b61087d8b828c016106e9565b955050608061088e8b828c01610760565b94505060a061089f8b828c01610760565b93505060c06108b08b828c01610796565b92505060e06108c18b828c01610796565b9150509295985092959890939650565b600081519050919050565b7f4e487b7100000000000000000000000000000000000000000000000000000000600052602260045260246000fd5b6000600282049050600182168061092357607f821691505b602082108103610936576109356108dc565b5b50919050565b60008190508160005260206000209050919050565b60006020601f8301049050919050565b600082821b905092915050565b60006008830261099e7fffffffffffffffffffffffffffffffffffffffffffffffffffffffffffffffff82610961565b6109a88683610961565b95508019841693508086168417925050509392505050565b6000819050919050565b60006109e56109e06109db84610775565b6109c0565b610775565b9050919050565b6000819050919050565b6109ff836109ca565b610a13610a0b826109ec565b84845461096e565b825550505050565b600090565b610a28610a1b565b610a338184846109f6565b505050565b5b81811015610a5757610a4c600082610a20565b600181019050610a39565b5050565b601f821115610a9c57610a6d8161093c565b610a7684610951565b81016020851015610a85578190505b610a99610a9185610951565b830182610a38565b50505b505050565b600082821c905092915050565b6000610abf60001984600802610aa1565b1980831691505092915050565b6000610ad88383610aae565b9150826002028217905092915050565b610af1826108d1565b67ffffffffffffffff811115610b0a57610b096105d1565b5b610b14825461090b565b610b1f828285610a5b565b600060209050601f831160018114610b525760008415610b40578287015190505b610b4a8582610acc565b865550610bb2565b601f198416610b608661093c565b60005b82811015610b8857848901518255600182019150602085019450602081019050610b63565b86831015610ba55784890151610ba1601f891682610aae565b8355505b6001600288020188555050505b505050505050565b610bc381610737565b82525050565b6000602082019050610bde6000830184610bba565b92915050565b600082825260208201905092915050565b7f596f6c6f53746f636b3a20594f4c4f20746f6b656e206164647265737320636160008201527f6e6e6f74206265207a65726f0000000000000000000000000000000000000000602082015250565b6000610c51602c83610be4565b9150610c5c82610bf5565b604082019050919050565b60006020820190508181036000830152610c8081610c44565b9050919050565b7f596f6c6f53746f636b3a2062617365207072696365206d75737420626520677260008201527f6561746572207468616e207a65726f0000000000000000000000000000000000602082015250565b6000610ce3602f83610be4565b9150610cee82610c87565b604082019050919050565b60006020820190508181036000830152610d1281610cd6565b9050919050565b7f4e487b7100000000000000000000000000000000000000000000000000000000600052601160045260246000fd5b6000610d5382610775565b9150610d5e83610775565b9250828201905080821115610d7657610d75610d19565b5b92915050565b610d8581610775565b82525050565b6000606082019050610da06000830186610bba565b610dad6020830185610d7c565b610dba6040830184610d7c565b949350505050565b6000602082019050610dd76000830184610d7c565b92915050565b6132e480610dec6000396000f3fe608060405234801561001057600080fd5b50600436106101fb5760003560e01c806370a082311161011a578063ad92d4bc116100ad578063dd62ed3e1161007c578063dd62ed3e1461059b578063e735b48a146105cb578063eb91d37e146105e7578063f2fde38b14610605578063fd5baa8814610621576101fb565b8063ad92d4bc14610520578063b9303dbd1461053e578063c7876ea41461055a578063ca83e48e14610578576101fb565b806395d89b41116100e957806395d89b411461049a5780639cd441da146104b85780639dc29fac146104d4578063a9059cbb146104f0576101fb565b806370a0823114610424578063715018a6146104545780637284e4161461045e5780638da5cb5b1461047c576101fb565b8063276ef7891161019257806351c181a31161016157806351c181a31461039c57806358b9a996146103b857806365cf7c9b146103e8578063688a172214610406576101fb565b8063276ef789146103125780632e5e2b3b14610332578063313ce56714610362578063449a52f814610380576101fb565b806318160ddd116101ce57806318160ddd1461028a5780631b2ef1ca146102a85780631f6f90bd146102c457806323b872dd146102e2576101fb565b806306fdde0314610200578063095ea7b31461021e5780630d5e35811461024e578063113990b81461026c575b600080fd5b61020861063d565b6040516102159190612183565b60405180910390f35b6102386004803603810190610233919061224d565b6106cf565b60405161024591906122a8565b60405180910390f35b6102566106f2565b60405161026391906122d2565b60405180910390f35b6102746106f8565b60405161028191906122d2565b60405180910390f35b6102926106fe565b60405161029f91906122d2565b60405180910390f35b6102c260048036038101906102bd91906122ed565b610708565b005b6102cc610973565b6040516102d99190612183565b60405180910390f35b6102fc60048036038101906102f7919061232d565b610a01565b60405161030991906122a8565b60405180910390f35b61031a610a30565b60405161032993929190612380565b60405180910390f35b61034c600480360381019061034791906123b7565b610a4e565b60405161035991906122d2565b60405180910390f35b61036a610b62565b6040516103779190612400565b60405180910390f35b61039a6004803603810190610395919061224d565b610b6b565b005b6103b660048036038101906103b191906122ed565b610bf0565b005b6103d260048036038101906103cd91906123b7565b610e1d565b6040516103df91906122d2565b60405180910390f35b6103f0610f32565b6040516103fd91906122d2565b60405180910390f35b61040e610f38565b60405161041b919061242a565b60405180910390f35b61043e60048036038101906104399190612445565b610f5e565b60405161044b91906122d2565b60405180910390f35b61045c610fa6565b005b610466610fba565b6040516104739190612183565b60405180910390f35b610484611048565b604051610491919061242a565b60405180910390f35b6104a2611072565b6040516104af9190612183565b60405180910390f35b6104d260048036038101906104cd91906122ed565b611104565b005b6104ee60048036038101906104e9919061224d565b61128f565b005b61050a6004803603810190610505919061224d565b611348565b60405161051791906122a8565b60405180910390f35b61052861136b565b60405161053591906122d2565b60405180910390f35b610558600480360381019061055391906122ed565b611371565b005b610562611555565b60405161056f91906122d2565b60405180910390f35b61058061155b565b60405161059296959493929190612472565b60405180910390f35b6105b560048036038101906105b091906124ef565b6116af565b6040516105c291906122d2565b60405180910390f35b6105e560048036038101906105e09190612664565b611736565b005b6105ef611751565b6040516105fc91906122d2565b60405180910390f35b61061f600480360381019061061a9190612445565b611797565b005b61063b600480360381019061063691906123b7565b61181d565b005b60606003805461064c906126dc565b80601f0160208091040260200160405190810160405280929190818152602001828054610678906126dc565b80156106c55780601f1061069a576101008083540402835291602001916106c5565b820191906000526020600020905b8154815290600101906020018083116106a857829003601f168201915b5050505050905090565b6000806106da6118b3565b90506106e78185856118bb565b600191505092915050565b600d5481565b6103e881565b6000600254905090565b6107106118cd565b60008211610753576040517f08c379a000000000000000000000000000000000000000000000000000000000815260040161074a9061277f565b60405180910390fd5b60008111610796576040517f08c379a000000000000000000000000000000000000000000000000000000000815260040161078d90612811565b60405180910390fd5b600a60009054906101000a900473ffffffffffffffffffffffffffffffffffffffff1673ffffffffffffffffffffffffffffffffffffffff166323b872dd3330846040518463ffffffff1660e01b81526004016107f593929190612831565b6020604051808303816000875af1158015610814573d6000803e3d6000fd5b505050506040513d601f19601f820116820180604052508101906108389190612894565b506000606460148461084a91906128f0565b6108549190612961565b9050600081846108649190612992565b90506108703383611913565b61087a3082611913565b80600d600082825461088c91906129c6565b9250508190555082600c60008282546108a591906129c6565b925050819055503073ffffffffffffffffffffffffffffffffffffffff163373ffffffffffffffffffffffffffffffffffffffff167f7c870d7c6c26713df227b4ad2a75514bb7526269b9423375f61b81c08ce3e9a784848860405161090d93929190612380565b60405180910390a33373ffffffffffffffffffffffffffffffffffffffff167fac1d76749e5447b7b16f5ab61447e1bd502f3bb4807af3b28e620d1700a6ee45828560405161095d9291906129fa565b60405180910390a2505061096f611995565b5050565b60078054610980906126dc565b80601f01602080910402602001604051908101604052809291908181526020018280546109ac906126dc565b80156109f95780601f106109ce576101008083540402835291602001916109f9565b820191906000526020600020905b8154815290600101906020018083116109dc57829003601f168201915b505050505081565b600080610a0c6118b3565b9050610a1985828561199f565b610a24858585611a34565b60019150509392505050565b6000806000610a3d611751565b600d54600c54925092509250909192565b6000808211610a92576040517f08c379a0000000000000000000000000000000000000000000000000000000008152600401610a899061277f565b60405180910390fd5b6000600c5411610ad7576040517f08c379a0000000000000000000000000000000000000000000000000000000008152600401610ace90612a95565b60405180910390fd5b600082600d54610ae791906129c6565b9050600081600d54600c54610afc91906128f0565b610b069190612961565b905080600c54610b169190612992565b925060008311610b5b576040517f08c379a0000000000000000000000000000000000000000000000000000000008152600401610b5290612b27565b60405180910390fd5b5050919050565b60006012905090565b610b73611b28565b600073ffffffffffffffffffffffffffffffffffffffff168273ffffffffffffffffffffffffffffffffffffffff1603610be2576040517f08c379a0000000000000000000000000000000000000000000000000000000008152600401610bd990612bb9565b60405180910390fd5b610bec8282611913565b5050565b610bf86118cd565b60008211610c3b576040517f08c379a0000000000000000000000000000000000000000000000000000000008152600401610c329061277f565b60405180910390fd5b81610c4533610f5e565b1015610c86576040517f08c379a0000000000000000000000000000000000000000000000000000000008152600401610c7d90612c4b565b60405180910390fd5b6000610c9183610a4e565b905081811015610cd6576040517f08c379a0000000000000000000000000000000000000000000000000000000008152600401610ccd90612cb7565b60405180910390fd5b610ce1333085611a34565b82600d6000828254610cf391906129c6565b9250508190555080600c6000828254610d0c9190612992565b92505081905550600a60009054906101000a900473ffffffffffffffffffffffffffffffffffffffff1673ffffffffffffffffffffffffffffffffffffffff1663a9059cbb33836040518363ffffffff1660e01b8152600401610d70929190612cd7565b6020604051808303816000875af1158015610d8f573d6000803e3d6000fd5b505050506040513d601f19601f82011682018060405250810190610db39190612894565b503373ffffffffffffffffffffffffffffffffffffffff167f69fd83406168ef35927190021ab940690b846cc0c13e3c76f0a74a83bdaddf9e60008584610df8611751565b604051610e089493929190612d00565b60405180910390a250610e19611995565b5050565b6000808211610e61576040517f08c379a0000000000000000000000000000000000000000000000000000000008152600401610e589061277f565b60405180910390fd5b6000600d5411610ea6576040517f08c379a0000000000000000000000000000000000000000000000000000000008152600401610e9d90612a95565b60405180910390fd5b600d548210610eea576040517f08c379a0000000000000000000000000000000000000000000000000000000008152600401610ee190612db7565b60405180910390fd5b600082600d54610efa9190612992565b9050600081600d54600c54610f0f91906128f0565b610f199190612961565b9050600c5481610f299190612992565b92505050919050565b60095481565b600a60009054906101000a900473ffffffffffffffffffffffffffffffffffffffff1681565b60008060008373ffffffffffffffffffffffffffffffffffffffff1673ffffffffffffffffffffffffffffffffffffffff168152602001908152602001600020549050919050565b610fae611b28565b610fb86000611baf565b565b60088054610fc7906126dc565b80601f0160208091040260200160405190810160405280929190818152602001828054610ff3906126dc565b80156110405780601f1061101557610100808354040283529160200191611040565b820191906000526020600020905b81548152906001019060200180831161102357829003601f168201915b505050505081565b6000600560009054906101000a900473ffffffffffffffffffffffffffffffffffffffff16905090565b606060048054611081906126dc565b80601f01602080910402602001604051908101604052809291908181526020018280546110ad906126dc565b80156110fa5780601f106110cf576101008083540402835291602001916110fa565b820191906000526020600020905b8154815290600101906020018083116110dd57829003601f168201915b5050505050905090565b61110c611b28565b60008211801561111c5750600081115b61115b576040517f08c379a000000000000000000000000000000000000000000000000000000000815260040161115290612e49565b60405180910390fd5b611166333084611a34565b600a60009054906101000a900473ffffffffffffffffffffffffffffffffffffffff1673ffffffffffffffffffffffffffffffffffffffff166323b872dd3330846040518463ffffffff1660e01b81526004016111c593929190612831565b6020604051808303816000875af11580156111e4573d6000803e3d6000fd5b505050506040513d601f19601f820116820180604052508101906112089190612894565b5081600d600082825461121b91906129c6565b9250508190555080600c600082825461123491906129c6565b925050819055503373ffffffffffffffffffffffffffffffffffffffff167fac1d76749e5447b7b16f5ab61447e1bd502f3bb4807af3b28e620d1700a6ee4583836040516112839291906129fa565b60405180910390a25050565b3373ffffffffffffffffffffffffffffffffffffffff168273ffffffffffffffffffffffffffffffffffffffff1614806112fb57506112cc611048565b73ffffffffffffffffffffffffffffffffffffffff163373ffffffffffffffffffffffffffffffffffffffff16145b61133a576040517f08c379a000000000000000000000000000000000000000000000000000000000815260040161133190612edb565b60405180910390fd5b6113448282611c75565b5050565b6000806113536118b3565b9050611360818585611a34565b600191505092915050565b600c5481565b6113796118cd565b600082116113bc576040517f08c379a00000000000000000000000000000000000000000000000000000000081526004016113b39061277f565b60405180910390fd5b60006113c783610e1d565b90508181111561140c576040517f08c379a000000000000000000000000000000000000000000000000000000000815260040161140390612f47565b60405180910390fd5b600a60009054906101000a900473ffffffffffffffffffffffffffffffffffffffff1673ffffffffffffffffffffffffffffffffffffffff166323b872dd3330846040518463ffffffff1660e01b815260040161146b93929190612831565b6020604051808303816000875af115801561148a573d6000803e3d6000fd5b505050506040513d601f19601f820116820180604052508101906114ae9190612894565b5082600d60008282546114c19190612992565b9250508190555080600c60008282546114da91906129c6565b925050819055506114ec303385611a34565b3373ffffffffffffffffffffffffffffffffffffffff167f69fd83406168ef35927190021ab940690b846cc0c13e3c76f0a74a83bdaddf9e60018584611530611751565b6040516115409493929190612d00565b60405180910390a250611551611995565b5050565b600b5481565b60608060608060008061156c61063d565b611574611072565b600760086009546115836106fe565b83805461158f906126dc565b80601f01602080910402602001604051908101604052809291908181526020018280546115bb906126dc565b80156116085780601f106115dd57610100808354040283529160200191611608565b820191906000526020600020905b8154815290600101906020018083116115eb57829003601f168201915b5050505050935082805461161b906126dc565b80601f0160208091040260200160405190810160405280929190818152602001828054611647906126dc565b80156116945780601f1061166957610100808354040283529160200191611694565b820191906000526020600020905b81548152906001019060200180831161167757829003601f168201915b50505050509250955095509550955095509550909192939495565b6000600160008473ffffffffffffffffffffffffffffffffffffffff1673ffffffffffffffffffffffffffffffffffffffff16815260200190815260200160002060008373ffffffffffffffffffffffffffffffffffffffff1673ffffffffffffffffffffffffffffffffffffffff16815260200190815260200160002054905092915050565b61173e611b28565b806008908161174d9190613113565b5050565b600080600d54148061176557506000600c54145b1561177457600b549050611794565b600d546103e8600c5461178791906128f0565b6117919190612961565b90505b90565b61179f611b28565b600073ffffffffffffffffffffffffffffffffffffffff168173ffffffffffffffffffffffffffffffffffffffff16036118115760006040517f1e4fbdf7000000000000000000000000000000000000000000000000000000008152600401611808919061242a565b60405180910390fd5b61181a81611baf565b50565b611825611b28565b60008111611868576040517f08c379a000000000000000000000000000000000000000000000000000000000815260040161185f90613257565b60405180910390fd5b6000600b54905081600b819055507f945c1c4e99aa89f648fbfe3df471b916f719e16d960fcec0737d4d56bd69683881836040516118a79291906129fa565b60405180910390a15050565b600033905090565b6118c88383836001611cf7565b505050565b600260065403611909576040517f3ee5aeb500000000000000000000000000000000000000000000000000000000815260040160405180910390fd5b6002600681905550565b600073ffffffffffffffffffffffffffffffffffffffff168273ffffffffffffffffffffffffffffffffffffffff16036119855760006040517fec442f0500000000000000000000000000000000000000000000000000000000815260040161197c919061242a565b60405180910390fd5b61199160008383611ece565b5050565b6001600681905550565b60006119ab84846116af565b90507fffffffffffffffffffffffffffffffffffffffffffffffffffffffffffffffff811015611a2e5781811015611a1e578281836040517ffb8f41b2000000000000000000000000000000000000000000000000000000008152600401611a1593929190613277565b60405180910390fd5b611a2d84848484036000611cf7565b5b50505050565b600073ffffffffffffffffffffffffffffffffffffffff168373ffffffffffffffffffffffffffffffffffffffff1603611aa65760006040517f96c6fd1e000000000000000000000000000000000000000000000000000000008152600401611a9d919061242a565b60405180910390fd5b600073ffffffffffffffffffffffffffffffffffffffff168273ffffffffffffffffffffffffffffffffffffffff1603611b185760006040517fec442f05000000000000000000000000000000000000000000000000000000008152600401611b0f919061242a565b60405180910390fd5b611b23838383611ece565b505050565b611b306118b3565b73ffffffffffffffffffffffffffffffffffffffff16611b4e611048565b73ffffffffffffffffffffffffffffffffffffffff1614611bad57611b716118b3565b6040517f118cdaa7000000000000000000000000000000000000000000000000000000008152600401611ba4919061242a565b60405180910390fd5b565b6000600560009054906101000a900473ffffffffffffffffffffffffffffffffffffffff16905081600560006101000a81548173ffffffffffffffffffffffffffffffffffffffff021916908373ffffffffffffffffffffffffffffffffffffffff1602179055508173ffffffffffffffffffffffffffffffffffffffff168173ffffffffffffffffffffffffffffffffffffffff167f8be0079c531659141344cd1fd0a4f28419497f9722a3daafe3b4186f6b6457e060405160405180910390a35050565b600073ffffffffffffffffffffffffffffffffffffffff168273ffffffffffffffffffffffffffffffffffffffff1603611ce75760006040517f96c6fd1e000000000000000000000000000000000000000000000000000000008152600401611cde919061242a565b60405180910390fd5b611cf382600083611ece565b5050565b600073ffffffffffffffffffffffffffffffffffffffff168473ffffffffffffffffffffffffffffffffffffffff1603611d695760006040517fe602df05000000000000000000000000000000000000000000000000000000008152600401611d60919061242a565b60405180910390fd5b600073ffffffffffffffffffffffffffffffffffffffff168373ffffffffffffffffffffffffffffffffffffffff1603611ddb5760006040517f94280d62000000000000000000000000000000000000000000000000000000008152600401611dd2919061242a565b60405180910390fd5b81600160008673ffffffffffffffffffffffffffffffffffffffff1673ffffffffffffffffffffffffffffffffffffffff16815260200190815260200160002060008573ffffffffffffffffffffffffffffffffffffffff1673ffffffffffffffffffffffffffffffffffffffff168152602001908152602001600020819055508015611ec8578273ffffffffffffffffffffffffffffffffffffffff168473ffffffffffffffffffffffffffffffffffffffff167f8c5be1e5ebec7d5bd14f71427d1e84f3dd0314c0f7b2291e5b200ac8c7c3b92584604051611ebf91906122d2565b60405180910390a35b50505050565b600073ffffffffffffffffffffffffffffffffffffffff168373ffffffffffffffffffffffffffffffffffffffff1603611f20578060026000828254611f1491906129c6565b92505081905550611ff3565b60008060008573ffffffffffffffffffffffffffffffffffffffff1673ffffffffffffffffffffffffffffffffffffffff16815260200190815260200160002054905081811015611fac578381836040517fe450d38c000000000000000000000000000000000000000000000000000000008152600401611fa393929190613277565b60405180910390fd5b8181036000808673ffffffffffffffffffffffffffffffffffffffff1673ffffffffffffffffffffffffffffffffffffffff16815260200190815260200160002081905550505b600073ffffffffffffffffffffffffffffffffffffffff168273ffffffffffffffffffffffffffffffffffffffff160361203c5780600260008282540392505081905550612089565b806000808473ffffffffffffffffffffffffffffffffffffffff1673ffffffffffffffffffffffffffffffffffffffff168152602001908152602001600020600082825401925050819055505b8173ffffffffffffffffffffffffffffffffffffffff168373ffffffffffffffffffffffffffffffffffffffff167fddf252ad1be2c89b69c2b068fc378daa952ba7f163c4a11628f55a4df523b3ef836040516120e691906122d2565b60405180910390a3505050565b600081519050919050565b600082825260208201905092915050565b60005b8381101561212d578082015181840152602081019050612112565b60008484015250505050565b6000601f19601f8301169050919050565b6000612155826120f3565b61215f81856120fe565b935061216f81856020860161210f565b61217881612139565b840191505092915050565b6000602082019050818103600083015261219d818461214a565b905092915050565b6000604051905090565b600080fd5b600080fd5b600073ffffffffffffffffffffffffffffffffffffffff82169050919050565b60006121e4826121b9565b9050919050565b6121f4816121d9565b81146121ff57600080fd5b50565b600081359050612211816121eb565b92915050565b6000819050919050565b61222a81612217565b811461223557600080fd5b50565b60008135905061224781612221565b92915050565b60008060408385031215612264576122636121af565b5b600061227285828601612202565b925050602061228385828601612238565b9150509250929050565b60008115159050919050565b6122a28161228d565b82525050565b60006020820190506122bd6000830184612299565b92915050565b6122cc81612217565b82525050565b60006020820190506122e760008301846122c3565b92915050565b60008060408385031215612304576123036121af565b5b600061231285828601612238565b925050602061232385828601612238565b9150509250929050565b600080600060608486031215612346576123456121af565b5b600061235486828701612202565b935050602061236586828701612202565b925050604061237686828701612238565b9150509250925092565b600060608201905061239560008301866122c3565b6123a260208301856122c3565b6123af60408301846122c3565b949350505050565b6000602082840312156123cd576123cc6121af565b5b60006123db84828501612238565b91505092915050565b600060ff82169050919050565b6123fa816123e4565b82525050565b600060208201905061241560008301846123f1565b92915050565b612424816121d9565b82525050565b600060208201905061243f600083018461241b565b92915050565b60006020828403121561245b5761245a6121af565b5b600061246984828501612202565b91505092915050565b600060c082019050818103600083015261248c818961214a565b905081810360208301526124a0818861214a565b905081810360408301526124b4818761214a565b905081810360608301526124c8818661214a565b90506124d760808301856122c3565b6124e460a08301846122c3565b979650505050505050565b60008060408385031215612506576125056121af565b5b600061251485828601612202565b925050602061252585828601612202565b9150509250929050565b600080fd5b600080fd5b7f4e487b7100000000000000000000000000000000000000000000000000000000600052604160045260246000fd5b61257182612139565b810181811067ffffffffffffffff821117156125905761258f612539565b5b80604052505050565b60006125a36121a5565b90506125af8282612568565b919050565b600067ffffffffffffffff8211156125cf576125ce612539565b5b6125d882612139565b9050602081019050919050565b82818337600083830152505050565b6000612607612602846125b4565b612599565b90508281526020810184848401111561262357612622612534565b5b61262e8482856125e5565b509392505050565b600082601f83011261264b5761264a61252f565b5b813561265b8482602086016125f4565b91505092915050565b60006020828403121561267a576126796121af565b5b600082013567ffffffffffffffff811115612698576126976121b4565b5b6126a484828501612636565b91505092915050565b7f4e487b7100000000000000000000000000000000000000000000000000000000600052602260045260246000fd5b600060028204905060018216806126f457607f821691505b602082108103612707576127066126ad565b5b50919050565b7f596f6c6f53746f636b3a2073746f636b20616d6f756e74206d7573742062652060008201527f67726561746572207468616e207a65726f000000000000000000000000000000602082015250565b60006127696031836120fe565b91506127748261270d565b604082019050919050565b600060208201905081810360008301526127988161275c565b9050919050565b7f596f6c6f53746f636b3a20594f4c4f20616d6f756e74206d757374206265206760008201527f726561746572207468616e207a65726f00000000000000000000000000000000602082015250565b60006127fb6030836120fe565b91506128068261279f565b604082019050919050565b6000602082019050818103600083015261282a816127ee565b9050919050565b6000606082019050612846600083018661241b565b612853602083018561241b565b61286060408301846122c3565b949350505050565b6128718161228d565b811461287c57600080fd5b50565b60008151905061288e81612868565b92915050565b6000602082840312156128aa576128a96121af565b5b60006128b88482850161287f565b91505092915050565b7f4e487b7100000000000000000000000000000000000000000000000000000000600052601160045260246000fd5b60006128fb82612217565b915061290683612217565b925082820261291481612217565b9150828204841483151761292b5761292a6128c1565b5b5092915050565b7f4e487b7100000000000000000000000000000000000000000000000000000000600052601260045260246000fd5b600061296c82612217565b915061297783612217565b92508261298757612986612932565b5b828204905092915050565b600061299d82612217565b91506129a883612217565b92508282039050818111156129c0576129bf6128c1565b5b92915050565b60006129d182612217565b91506129dc83612217565b92508282019050808211156129f4576129f36128c1565b5b92915050565b6000604082019050612a0f60008301856122c3565b612a1c60208301846122c3565b9392505050565b7f596f6c6f53746f636b3a206e6f206c697175696469747920617661696c61626c60008201527f652c20706c6561736520616464206c6971756964697479206669727374000000602082015250565b6000612a7f603d836120fe565b9150612a8a82612a23565b604082019050919050565b60006020820190508181036000830152612aae81612a72565b9050919050565b7f596f6c6f53746f636b3a20696e73756666696369656e7420594f4c4f2072657360008201527f6572766500000000000000000000000000000000000000000000000000000000602082015250565b6000612b116024836120fe565b9150612b1c82612ab5565b604082019050919050565b60006020820190508181036000830152612b4081612b04565b9050919050565b7f596f6c6f53746f636b3a206d696e7420746f20746865207a65726f206164647260008201527f6573730000000000000000000000000000000000000000000000000000000000602082015250565b6000612ba36023836120fe565b9150612bae82612b47565b604082019050919050565b60006020820190508181036000830152612bd281612b96565b9050919050565b7f596f6c6f53746f636b3a20696e73756666696369656e742073746f636b20626160008201527f6c616e6365000000000000000000000000000000000000000000000000000000602082015250565b6000612c356025836120fe565b9150612c4082612bd9565b604082019050919050565b60006020820190508181036000830152612c6481612c28565b9050919050565b7f596f6c6f53746f636b3a2070726963652062656c6f77206d696e696d756d0000600082015250565b6000612ca1601e836120fe565b9150612cac82612c6b565b602082019050919050565b60006020820190508181036000830152612cd081612c94565b9050919050565b6000604082019050612cec600083018561241b565b612cf960208301846122c3565b9392505050565b6000608082019050612d156000830187612299565b612d2260208301866122c3565b612d2f60408301856122c3565b612d3c60608301846122c3565b95945050505050565b7f596f6c6f53746f636b3a20696e73756666696369656e742073746f636b20726560008201527f7365727665000000000000000000000000000000000000000000000000000000602082015250565b6000612da16025836120fe565b9150612dac82612d45565b604082019050919050565b60006020820190508181036000830152612dd081612d94565b9050919050565b7f596f6c6f53746f636b3a20616d6f756e7473206d75737420626520677265617460008201527f6572207468616e207a65726f0000000000000000000000000000000000000000602082015250565b6000612e33602c836120fe565b9150612e3e82612dd7565b604082019050919050565b60006020820190508181036000830152612e6281612e26565b9050919050565b7f596f6c6f53746f636b3a206f6e6c7920746f6b656e206f776e6572206f72206360008201527f6f6e7472616374206f776e65722063616e206275726e00000000000000000000602082015250565b6000612ec56036836120fe565b9150612ed082612e69565b604082019050919050565b60006020820190508181036000830152612ef481612eb8565b9050919050565b7f596f6c6f53746f636b3a2070726963652065786365656473206d6178696d756d600082015250565b6000612f316020836120fe565b9150612f3c82612efb565b602082019050919050565b60006020820190508181036000830152612f6081612f24565b9050919050565b60008190508160005260206000209050919050565b60006020601f8301049050919050565b600082821b905092915050565b600060088302612fc97fffffffffffffffffffffffffffffffffffffffffffffffffffffffffffffffff82612f8c565b612fd38683612f8c565b95508019841693508086168417925050509392505050565b6000819050919050565b600061301061300b61300684612217565b612feb565b612217565b9050919050565b6000819050919050565b61302a83612ff5565b61303e61303682613017565b848454612f99565b825550505050565b600090565b613053613046565b61305e818484613021565b505050565b5b818110156130825761307760008261304b565b600181019050613064565b5050565b601f8211156130c75761309881612f67565b6130a184612f7c565b810160208510156130b0578190505b6130c46130bc85612f7c565b830182613063565b50505b505050565b600082821c905092915050565b60006130ea600019846008026130cc565b1980831691505092915050565b600061310383836130d9565b9150826002028217905092915050565b61311c826120f3565b67ffffffffffffffff81111561313557613134612539565b5b61313f82546126dc565b61314a828285613086565b600060209050601f83116001811461317d576000841561316b578287015190505b61317585826130f7565b8655506131dd565b601f19841661318b86612f67565b60005b828110156131b35784890151825560018201915060208501945060208101905061318e565b868310156131d057848901516131cc601f8916826130d9565b8355505b6001600288020188555050505b505050505050565b7f596f6c6f53746f636b3a2062617365207072696365206d75737420626520677260008201527f6561746572207468616e207a65726f0000000000000000000000000000000000602082015250565b6000613241602f836120fe565b915061324c826131e5565b604082019050919050565b6000602082019050818103600083015261327081613234565b9050919050565b600060608201905061328c600083018661241b565b61329960208301856122c3565b6132a660408301846122c3565b94935050505056fea26469706673582212202282c89e2953f42189a5cd3d8c86b07902e566f1c6e62c7990346f4d066a2c1e64736f6c634300081c0033",
  "linkReferences": {},
  "deployedLinkReferences": {}
}