{
  "_format": "hh-sol-artifact-1",
  "contractName": "YoloToken",
  "sourceName": "contracts/yolotoken.sol",
  "abi": [
    {
      "inputs": [
        {
          "internalType": "string",
          "name": "name",
          "type": "string"
        },
        {
          "internalType": "string",
          "name": "symbol",
          "type": "string"
        },
        {
          "internalType": "address[]",
          "name": "initialHolders",
          "type": "address[]"
        },
        {
          "internalType": "uint256[]",
          "name": "initialAmounts",
          "type": "uint256[]"
        }
      ],
      "stateMutability": "nonpayable",
      "type": "constructor"
    },
    {
      "inputs": [
        {
          "internalType": "address",
          "name": "spender",
          "type": "address"
        },
        {
          "internalType": "uint256",
          "name": "allowance",
          "type": "uint256"
        },
        {
          "internalType": "uint256",
          "name": "needed",
          "type": "uint256"
        }
      ],
      "name": "ERC20InsufficientAllowance",
      "type": "error"
    },
    {
      "inputs": [
        {
          "internalType": "address",
          "name": "sender",
          "type": "address"
        },
        {
          "internalType": "uint256",
          "name": "balance",
          "type": "uint256"
        },
        {
          "internalType": "uint256",
          "name": "needed",
          "type": "uint256"
        }
      ],
      "name": "ERC20InsufficientBalance",
      "type": "error"
    },
    {
      "inputs": [
        {
          "internalType": "address",
          "name": "approver",
          "type": "address"
        }
      ],
      "name": "ERC20InvalidApprover",
      "type": "error"
    },
    {
      "inputs": [
        {
          "internalType": "address",
          "name": "receiver",
          "type": "address"
        }
      ],
      "name": "ERC20InvalidReceiver",
      "type": "error"
    },
    {
      "inputs": [
        {
          "internalType": "address",
          "name": "sender",
          "type": "address"
        }
      ],
      "name": "ERC20InvalidSender",
      "type": "error"
    },
    {
      "inputs": [
        {
          "internalType": "address",
          "name": "spender",
          "type": "address"
        }
      ],
      "name": "ERC20InvalidSpender",
      "type": "error"
    },
    {
      "inputs": [
        {
          "internalType": "address",
          "name": "owner",
          "type": "address"
        }
      ],
      "name": "OwnableInvalidOwner",
      "type": "error"
    },
    {
      "inputs": [
        {
          "internalType": "address",
          "name": "account",
          "type": "address"
        }
      ],
      "name": "OwnableUnauthorizedAccount",
      "type": "error"
    },
    {
      "anonymous": false,
      "inputs": [
        {
          "indexed": true,
          "internalType": "address",
          "name": "owner",
          "type": "address"
        },
        {
          "indexed": true,
          "internalType": "address",
          "name": "spender",
          "type": "address"
        },
        {
          "indexed": false,
          "internalType": "uint256",
          "name": "value",
          "type": "uint256"
        }
      ],
      "name": "Approval",
      "type": "event"
    },
    {
      "anonymous": false,
      "inputs": [
        {
          "indexed": true,
          "internalType": "address",
          "name": "previousOwner",
          "type": "address"
        },
        {
          "indexed": true,
          "internalType": "address",
          "name": "newOwner",
          "type": "address"
        }
      ],
      "name": "OwnershipTransferred",
      "type": "event"
    },
    {
      "anonymous": false,
      "inputs": [
        {
          "indexed": true,
          "internalType": "address",
          "name": "from",
          "type": "address"
        },
        {
          "indexed": true,
          "internalType": "address",
          "name": "to",
          "type": "address"
        },
        {
          "indexed": false,
          "internalType": "uint256",
          "name": "value",
          "type": "uint256"
        }
      ],
      "name": "Transfer",
      "type": "event"
    },
    {
      "inputs": [
        {
          "internalType": "address",
          "name": "owner",
          "type": "address"
        },
        {
          "internalType": "address",
          "name": "spender",
          "type": "address"
        }
      ],
      "name": "allowance",
      "outputs": [
        {
          "internalType": "uint256",
          "name": "",
          "type": "uint256"
        }
      ],
      "stateMutability": "view",
      "type": "function"
    },
    {
      "inputs": [
        {
          "internalType": "address",
          "name": "spender",
          "type": "address"
        },
        {
          "internalType": "uint256",
          "name": "value",
          "type": "uint256"
        }
      ],
      "name": "approve",
      "outputs": [
        {
          "internalType": "bool",
          "name": "",
          "type": "bool"
        }
      ],
      "stateMutability": "nonpayable",
      "type": "function"
    },
    {
      "inputs": [
        {
          "internalType": "address",
          "name": "account",
          "type": "address"
        }
      ],
      "name": "balanceOf",
      "outputs": [
        {
          "internalType": "uint256",
          "name": "",
          "type": "uint256"
        }
      ],
      "stateMutability": "view",
      "type": "function"
    },
    {
      "inputs": [
        {
          "internalType": "address",
          "name": "from",
          "type": "address"
        },
        {
          "internalType": "uint256",
          "name": "amount",
          "type": "uint256"
        }
      ],
      "name": "burn",
      "outputs": [],
      "stateMutability": "nonpayable",
      "type": "function"
    },
    {
      "inputs": [
        {
          "internalType": "uint256",
          "name": "amount",
          "type": "uint256"
        }
      ],
      "name": "burnOwn",
      "outputs": [],
      "stateMutability": "nonpayable",
      "type": "function"
    },
    {
      "inputs": [],
      "name": "decimals",
      "outputs": [
        {
          "internalType": "uint8",
          "name": "",
          "type": "uint8"
        }
      ],
      "stateMutability": "view",
      "type": "function"
    },
    {
      "inputs": [
        {
          "internalType": "address",
          "name": "to",
          "type": "address"
        },
        {
          "internalType": "uint256",
          "name": "amount",
          "type": "uint256"
        }
      ],
      "name": "mint",
      "outputs": [],
      "stateMutability": "nonpayable",
      "type": "function"
    },
    {
      "inputs": [],
      "name": "name",
      "outputs": [
        {
          "internalType": "string",
          "name": "",
          "type": "string"
        }
      ],
      "stateMutability": "view",
      "type": "function"
    },
    {
      "inputs": [],
      "name": "owner",
      "outputs": [
        {
          "internalType": "address",
          "name": "",
          "type": "address"
        }
      ],
      "stateMutability": "view",
      "type": "function"
    },
    {
      "inputs": [],
      "name": "renounceOwnership",
      "outputs": [],
      "stateMutability": "nonpayable",
      "type": "function"
    },
    {
      "inputs": [],
      "name": "symbol",
      "outputs": [
        {
          "internalType": "string",
          "name": "",
          "type": "string"
        }
      ],
      "stateMutability": "view",
      "type": "function"
    },
    {
      "inputs": [],
      "name": "totalSupply",
      "outputs": [
        {
          "internalType": "uint256",
          "name": "",
          "type": "uint256"
        }
      ],
      "stateMutability": "view",
      "type": "function"
    },
    {
      "inputs": [
        {
          "internalType": "address",
          "name": "to",
          "type": "address"
        },
        {
          "internalType": "uint256",
          "name": "value",
          "type": "uint256"
        }
      ],
      "name": "transfer",
      "outputs": [
        {
          "internalType": "bool",
          "name": "",
          "type": "bool"
        }
      ],
      "stateMutability": "nonpayable",
      "type": "function"
    },
    {
      "inputs": [
        {
          "internalType": "address",
          "name": "from",
          "type": "address"
        },
        {
          "internalType": "address",
          "name": "to",
          "type": "address"
        },
        {
          "internalType": "uint256",
          "name": "value",
          "type": "uint256"
        }
      ],
      "name": "transferFrom",
      "outputs": [
        {
          "internalType": "bool",
          "name": "",
          "type": "bool"
        }
      ],
      "stateMutability": "nonpayable",
      "type": "function"
    },
    {
      "inputs": [
        {
          "internalType": "address",
          "name": "newOwner",
          "type": "address"
        }
      ],
      "name": "transferOwnership",
      "outputs": [],
      "stateMutability": "nonpayable",
      "type": "function"
    }
  ],
  "bytecode": "0x608060405234801561001057600080fd5b506040516122db3803806122db83398181016040528101906100329190610914565b33848481600390816100449190610c02565b5080600490816100549190610c02565b505050600073ffffffffffffffffffffffffffffffffffffffff168173ffffffffffffffffffffffffffffffffffffffff16036100c95760006040517f1e4fbdf70000000000000000000000000000000000000000000000000000000081526004016100c09190610ce3565b60405180910390fd5b6100d88161020d60201b60201c565b50805182511461011d576040517f08c379a000000000000000000000000000000000000000000000000000000000815260040161011490610d81565b60405180910390fd5b60005b825181101561020357600073ffffffffffffffffffffffffffffffffffffffff1683828151811061015457610153610da1565b5b602002602001015173ffffffffffffffffffffffffffffffffffffffff16036101b2576040517f08c379a00000000000000000000000000000000000000000000000000000000081526004016101a990610e1c565b60405180910390fd5b6101f68382815181106101c8576101c7610da1565b5b60200260200101518383815181106101e3576101e2610da1565b5b60200260200101516102d360201b60201c565b8080600101915050610120565b5050505050610f00565b6000600560009054906101000a900473ffffffffffffffffffffffffffffffffffffffff16905081600560006101000a81548173ffffffffffffffffffffffffffffffffffffffff021916908373ffffffffffffffffffffffffffffffffffffffff1602179055508173ffffffffffffffffffffffffffffffffffffffff168173ffffffffffffffffffffffffffffffffffffffff167f8be0079c531659141344cd1fd0a4f28419497f9722a3daafe3b4186f6b6457e060405160405180910390a35050565b600073ffffffffffffffffffffffffffffffffffffffff168273ffffffffffffffffffffffffffffffffffffffff16036103455760006040517fec442f0500000000000000000000000000000000000000000000000000000000815260040161033c9190610ce3565b60405180910390fd5b6103576000838361035b60201b60201c565b5050565b600073ffffffffffffffffffffffffffffffffffffffff168373ffffffffffffffffffffffffffffffffffffffff16036103ad5780600260008282546103a19190610e6b565b92505081905550610480565b60008060008573ffffffffffffffffffffffffffffffffffffffff1673ffffffffffffffffffffffffffffffffffffffff16815260200190815260200160002054905081811015610439578381836040517fe450d38c00000000000000000000000000000000000000000000000000000000815260040161043093929190610eae565b60405180910390fd5b8181036000808673ffffffffffffffffffffffffffffffffffffffff1673ffffffffffffffffffffffffffffffffffffffff16815260200190815260200160002081905550505b600073ffffffffffffffffffffffffffffffffffffffff168273ffffffffffffffffffffffffffffffffffffffff16036104c95780600260008282540392505081905550610516565b806000808473ffffffffffffffffffffffffffffffffffffffff1673ffffffffffffffffffffffffffffffffffffffff168152602001908152602001600020600082825401925050819055505b8173ffffffffffffffffffffffffffffffffffffffff168373ffffffffffffffffffffffffffffffffffffffff167fddf252ad1be2c89b69c2b068fc378daa952ba7f163c4a11628f55a4df523b3ef836040516105739190610ee5565b60405180910390a3505050565b6000604051905090565b600080fd5b600080fd5b600080fd5b600080fd5b6000601f19601f8301169050919050565b7f4e487b7100000000000000000000000000000000000000000000000000000000600052604160045260246000fd5b6105e78261059e565b810181811067ffffffffffffffff82111715610606576106056105af565b5b80604052505050565b6000610619610580565b905061062582826105de565b919050565b600067ffffffffffffffff821115610645576106446105af565b5b61064e8261059e565b9050602081019050919050565b60005b8381101561067957808201518184015260208101905061065e565b60008484015250505050565b60006106986106938461062a565b61060f565b9050828152602081018484840111156106b4576106b3610599565b5b6106bf84828561065b565b509392505050565b600082601f8301126106dc576106db610594565b5b81516106ec848260208601610685565b91505092915050565b600067ffffffffffffffff8211156107105761070f6105af565b5b602082029050602081019050919050565b600080fd5b600073ffffffffffffffffffffffffffffffffffffffff82169050919050565b600061075182610726565b9050919050565b61076181610746565b811461076c57600080fd5b50565b60008151905061077e81610758565b92915050565b6000610797610792846106f5565b61060f565b905080838252602082019050602084028301858111156107ba576107b9610721565b5b835b818110156107e357806107cf888261076f565b8452602084019350506020810190506107bc565b5050509392505050565b600082601f83011261080257610801610594565b5b8151610812848260208601610784565b91505092915050565b600067ffffffffffffffff821115610836576108356105af565b5b602082029050602081019050919050565b6000819050919050565b61085a81610847565b811461086557600080fd5b50565b60008151905061087781610851565b92915050565b600061089061088b8461081b565b61060f565b905080838252602082019050602084028301858111156108b3576108b2610721565b5b835b818110156108dc57806108c88882610868565b8452602084019350506020810190506108b5565b5050509392505050565b600082601f8301126108fb576108fa610594565b5b815161090b84826020860161087d565b91505092915050565b6000806000806080858703121561092e5761092d61058a565b5b600085015167ffffffffffffffff81111561094c5761094b61058f565b5b610958878288016106c7565b945050602085015167ffffffffffffffff8111156109795761097861058f565b5b610985878288016106c7565b935050604085015167ffffffffffffffff8111156109a6576109a561058f565b5b6109b2878288016107ed565b925050606085015167ffffffffffffffff8111156109d3576109d261058f565b5b6109df878288016108e6565b91505092959194509250565b600081519050919050565b7f4e487b7100000000000000000000000000000000000000000000000000000000600052602260045260246000fd5b60006002820490506001821680610a3d57607f821691505b602082108103610a5057610a4f6109f6565b5b50919050565b60008190508160005260206000209050919050565b60006020601f8301049050919050565b600082821b905092915050565b600060088302610ab87fffffffffffffffffffffffffffffffffffffffffffffffffffffffffffffffff82610a7b565b610ac28683610a7b565b95508019841693508086168417925050509392505050565b6000819050919050565b6000610aff610afa610af584610847565b610ada565b610847565b9050919050565b6000819050919050565b610b1983610ae4565b610b2d610b2582610b06565b848454610a88565b825550505050565b600090565b610b42610b35565b610b4d818484610b10565b505050565b5b81811015610b7157610b66600082610b3a565b600181019050610b53565b5050565b601f821115610bb657610b8781610a56565b610b9084610a6b565b81016020851015610b9f578190505b610bb3610bab85610a6b565b830182610b52565b50505b505050565b600082821c905092915050565b6000610bd960001984600802610bbb565b1980831691505092915050565b6000610bf28383610bc8565b9150826002028217905092915050565b610c0b826109eb565b67ffffffffffffffff811115610c2457610c236105af565b5b610c2e8254610a25565b610c39828285610b75565b600060209050601f831160018114610c6c5760008415610c5a578287015190505b610c648582610be6565b865550610ccc565b601f198416610c7a86610a56565b60005b82811015610ca257848901518255600182019150602085019450602081019050610c7d565b86831015610cbf5784890151610cbb601f891682610bc8565b8355505b6001600288020188555050505b505050505050565b610cdd81610746565b82525050565b6000602082019050610cf86000830184610cd4565b92915050565b600082825260208201905092915050565b7f596f6c6f546f6b656e3a20617272617973206c656e677468206d69736d61746360008201527f6800000000000000000000000000000000000000000000000000000000000000602082015250565b6000610d6b602183610cfe565b9150610d7682610d0f565b604082019050919050565b60006020820190508181036000830152610d9a81610d5e565b9050919050565b7f4e487b7100000000000000000000000000000000000000000000000000000000600052603260045260246000fd5b7f596f6c6f546f6b656e3a207a65726f2061646472657373000000000000000000600082015250565b6000610e06601783610cfe565b9150610e1182610dd0565b602082019050919050565b60006020820190508181036000830152610e3581610df9565b9050919050565b7f4e487b7100000000000000000000000000000000000000000000000000000000600052601160045260246000fd5b6000610e7682610847565b9150610e8183610847565b9250828201905080821115610e9957610e98610e3c565b5b92915050565b610ea881610847565b82525050565b6000606082019050610ec36000830186610cd4565b610ed06020830185610e9f565b610edd6040830184610e9f565b949350505050565b6000602082019050610efa6000830184610e9f565b92915050565b6113cc80610f0f6000396000f3fe608060405234801561001057600080fd5b50600436106100f55760003560e01c8063715018a611610097578063a9059cbb11610066578063a9059cbb14610262578063b6331be514610292578063dd62ed3e146102ae578063f2fde38b146102de576100f5565b8063715018a6146102005780638da5cb5b1461020a57806395d89b41146102285780639dc29fac14610246576100f5565b806323b872dd116100d357806323b872dd14610166578063313ce5671461019657806340c10f19146101b457806370a08231146101d0576100f5565b806306fdde03146100fa578063095ea7b31461011857806318160ddd14610148575b600080fd5b6101026102fa565b60405161010f9190610f61565b60405180910390f35b610132600480360381019061012d919061101c565b61038c565b60405161013f9190611077565b60405180910390f35b6101506103af565b60405161015d91906110a1565b60405180910390f35b610180600480360381019061017b91906110bc565b6103b9565b60405161018d9190611077565b60405180910390f35b61019e6103e8565b6040516101ab919061112b565b60405180910390f35b6101ce60048036038101906101c9919061101c565b6103f1565b005b6101ea60048036038101906101e59190611146565b610476565b6040516101f791906110a1565b60405180910390f35b6102086104be565b005b6102126104d2565b60405161021f9190611182565b60405180910390f35b6102306104fc565b60405161023d9190610f61565b60405180910390f35b610260600480360381019061025b919061101c565b61058e565b005b61027c6004803603810190610277919061101c565b6105a4565b6040516102899190611077565b60405180910390f35b6102ac60048036038101906102a7919061119d565b6105c7565b005b6102c860048036038101906102c391906111ca565b6105d4565b6040516102d591906110a1565b60405180910390f35b6102f860048036038101906102f39190611146565b61065b565b005b60606003805461030990611239565b80601f016020809104026020016040519081016040528092919081815260200182805461033590611239565b80156103825780601f1061035757610100808354040283529160200191610382565b820191906000526020600020905b81548152906001019060200180831161036557829003601f168201915b5050505050905090565b6000806103976106e1565b90506103a48185856106e9565b600191505092915050565b6000600254905090565b6000806103c46106e1565b90506103d18582856106fb565b6103dc858585610790565b60019150509392505050565b60006012905090565b6103f9610884565b600073ffffffffffffffffffffffffffffffffffffffff168273ffffffffffffffffffffffffffffffffffffffff1603610468576040517f08c379a000000000000000000000000000000000000000000000000000000000815260040161045f906112dc565b60405180910390fd5b610472828261090b565b5050565b60008060008373ffffffffffffffffffffffffffffffffffffffff1673ffffffffffffffffffffffffffffffffffffffff168152602001908152602001600020549050919050565b6104c6610884565b6104d0600061098d565b565b6000600560009054906101000a900473ffffffffffffffffffffffffffffffffffffffff16905090565b60606004805461050b90611239565b80601f016020809104026020016040519081016040528092919081815260200182805461053790611239565b80156105845780601f1061055957610100808354040283529160200191610584565b820191906000526020600020905b81548152906001019060200180831161056757829003601f168201915b5050505050905090565b610596610884565b6105a08282610a53565b5050565b6000806105af6106e1565b90506105bc818585610790565b600191505092915050565b6105d13382610a53565b50565b6000600160008473ffffffffffffffffffffffffffffffffffffffff1673ffffffffffffffffffffffffffffffffffffffff16815260200190815260200160002060008373ffffffffffffffffffffffffffffffffffffffff1673ffffffffffffffffffffffffffffffffffffffff16815260200190815260200160002054905092915050565b610663610884565b600073ffffffffffffffffffffffffffffffffffffffff168173ffffffffffffffffffffffffffffffffffffffff16036106d55760006040517f1e4fbdf70000000000000000000000000000000000000000000000000000000081526004016106cc9190611182565b60405180910390fd5b6106de8161098d565b50565b600033905090565b6106f68383836001610ad5565b505050565b600061070784846105d4565b90507fffffffffffffffffffffffffffffffffffffffffffffffffffffffffffffffff81101561078a578181101561077a578281836040517ffb8f41b2000000000000000000000000000000000000000000000000000000008152600401610771939291906112fc565b60405180910390fd5b61078984848484036000610ad5565b5b50505050565b600073ffffffffffffffffffffffffffffffffffffffff168373ffffffffffffffffffffffffffffffffffffffff16036108025760006040517f96c6fd1e0000000000000000000000000000000000000000000000000000000081526004016107f99190611182565b60405180910390fd5b600073ffffffffffffffffffffffffffffffffffffffff168273ffffffffffffffffffffffffffffffffffffffff16036108745760006040517fec442f0500000000000000000000000000000000000000000000000000000000815260040161086b9190611182565b60405180910390fd5b61087f838383610cac565b505050565b61088c6106e1565b73ffffffffffffffffffffffffffffffffffffffff166108aa6104d2565b73ffffffffffffffffffffffffffffffffffffffff1614610909576108cd6106e1565b6040517f118cdaa70000000000000000000000000000000000000000000000000000000081526004016109009190611182565b60405180910390fd5b565b600073ffffffffffffffffffffffffffffffffffffffff168273ffffffffffffffffffffffffffffffffffffffff160361097d5760006040517fec442f050000000000000000000000000000000000000000000000000000000081526004016109749190611182565b60405180910390fd5b61098960008383610cac565b5050565b6000600560009054906101000a900473ffffffffffffffffffffffffffffffffffffffff16905081600560006101000a81548173ffffffffffffffffffffffffffffffffffffffff021916908373ffffffffffffffffffffffffffffffffffffffff1602179055508173ffffffffffffffffffffffffffffffffffffffff168173ffffffffffffffffffffffffffffffffffffffff167f8be0079c531659141344cd1fd0a4f28419497f9722a3daafe3b4186f6b6457e060405160405180910390a35050565b600073ffffffffffffffffffffffffffffffffffffffff168273ffffffffffffffffffffffffffffffffffffffff1603610ac55760006040517f96c6fd1e000000000000000000000000000000000000000000000000000000008152600401610abc9190611182565b60405180910390fd5b610ad182600083610cac565b5050565b600073ffffffffffffffffffffffffffffffffffffffff168473ffffffffffffffffffffffffffffffffffffffff1603610b475760006040517fe602df05000000000000000000000000000000000000000000000000000000008152600401610b3e9190611182565b60405180910390fd5b600073ffffffffffffffffffffffffffffffffffffffff168373ffffffffffffffffffffffffffffffffffffffff1603610bb95760006040517f94280d62000000000000000000000000000000000000000000000000000000008152600401610bb09190611182565b60405180910390fd5b81600160008673ffffffffffffffffffffffffffffffffffffffff1673ffffffffffffffffffffffffffffffffffffffff16815260200190815260200160002060008573ffffffffffffffffffffffffffffffffffffffff1673ffffffffffffffffffffffffffffffffffffffff168152602001908152602001600020819055508015610ca6578273ffffffffffffffffffffffffffffffffffffffff168473ffffffffffffffffffffffffffffffffffffffff167f8c5be1e5ebec7d5bd14f71427d1e84f3dd0314c0f7b2291e5b200ac8c7c3b92584604051610c9d91906110a1565b60405180910390a35b50505050565b600073ffffffffffffffffffffffffffffffffffffffff168373ffffffffffffffffffffffffffffffffffffffff1603610cfe578060026000828254610cf29190611362565b92505081905550610dd1565b60008060008573ffffffffffffffffffffffffffffffffffffffff1673ffffffffffffffffffffffffffffffffffffffff16815260200190815260200160002054905081811015610d8a578381836040517fe450d38c000000000000000000000000000000000000000000000000000000008152600401610d81939291906112fc565b60405180910390fd5b8181036000808673ffffffffffffffffffffffffffffffffffffffff1673ffffffffffffffffffffffffffffffffffffffff16815260200190815260200160002081905550505b600073ffffffffffffffffffffffffffffffffffffffff168273ffffffffffffffffffffffffffffffffffffffff1603610e1a5780600260008282540392505081905550610e67565b806000808473ffffffffffffffffffffffffffffffffffffffff1673ffffffffffffffffffffffffffffffffffffffff168152602001908152602001600020600082825401925050819055505b8173ffffffffffffffffffffffffffffffffffffffff168373ffffffffffffffffffffffffffffffffffffffff167fddf252ad1be2c89b69c2b068fc378daa952ba7f163c4a11628f55a4df523b3ef83604051610ec491906110a1565b60405180910390a3505050565b600081519050919050565b600082825260208201905092915050565b60005b83811015610f0b578082015181840152602081019050610ef0565b60008484015250505050565b6000601f19601f8301169050919050565b6000610f3382610ed1565b610f3d8185610edc565b9350610f4d818560208601610eed565b610f5681610f17565b840191505092915050565b60006020820190508181036000830152610f7b8184610f28565b905092915050565b600080fd5b600073ffffffffffffffffffffffffffffffffffffffff82169050919050565b6000610fb382610f88565b9050919050565b610fc381610fa8565b8114610fce57600080fd5b50565b600081359050610fe081610fba565b92915050565b6000819050919050565b610ff981610fe6565b811461100457600080fd5b50565b60008135905061101681610ff0565b92915050565b6000806040838503121561103357611032610f83565b5b600061104185828601610fd1565b925050602061105285828601611007565b9150509250929050565b60008115159050919050565b6110718161105c565b82525050565b600060208201905061108c6000830184611068565b92915050565b61109b81610fe6565b82525050565b60006020820190506110b66000830184611092565b92915050565b6000806000606084860312156110d5576110d4610f83565b5b60006110e386828701610fd1565b93505060206110f486828701610fd1565b925050604061110586828701611007565b9150509250925092565b600060ff82169050919050565b6111258161110f565b82525050565b6000602082019050611140600083018461111c565b92915050565b60006020828403121561115c5761115b610f83565b5b600061116a84828501610fd1565b91505092915050565b61117c81610fa8565b82525050565b60006020820190506111976000830184611173565b92915050565b6000602082840312156111b3576111b2610f83565b5b60006111c184828501611007565b91505092915050565b600080604083850312156111e1576111e0610f83565b5b60006111ef85828601610fd1565b925050602061120085828601610fd1565b9150509250929050565b7f4e487b7100000000000000000000000000000000000000000000000000000000600052602260045260246000fd5b6000600282049050600182168061125157607f821691505b6020821081036112645761126361120a565b5b50919050565b7f596f6c6f546f6b656e3a206d696e7420746f20746865207a65726f206164647260008201527f6573730000000000000000000000000000000000000000000000000000000000602082015250565b60006112c6602383610edc565b91506112d18261126a565b604082019050919050565b600060208201905081810360008301526112f5816112b9565b9050919050565b60006060820190506113116000830186611173565b61131e6020830185611092565b61132b6040830184611092565b949350505050565b7f4e487b7100000000000000000000000000000000000000000000000000000000600052601160045260246000fd5b600061136d82610fe6565b915061137883610fe6565b92508282019050808211156113905761138f611333565b5b9291505056fea26469706673582212207f1c2b579830fed9c012ca31e7bd2cd434c82b76765d9c42350c80520bffd8b364736f6c634300081c0033",
  "linkReferences": {},
  "deployedLinkReferences": {}
}