{
  "_format": "hh-sol-artifact-1",
  "contractName": "SimpleSwap",
  "sourceName": "contracts/swap.sol",
  "abi": [
    {
      "inputs": [
        {
          "internalType": "address",
          "name": "_tokenA",
          "type": "address"
        },
        {
          "internalType": "address",
          "name": "_tokenB",
          "type": "address"
        }
      ],
      "stateMutability": "nonpayable",
      "type": "constructor"
    },
    {
      "inputs": [
        {
          "internalType": "uint256",
          "name": "amountA",
          "type": "uint256"
        },
        {
          "internalType": "uint256",
          "name": "amountB",
          "type": "uint256"
        }
      ],
      "name": "addLiquidity",
      "outputs": [],
      "stateMutability": "nonpayable",
      "type": "function"
    },
    {
      "inputs": [],
      "name": "getPriceAtoB",
      "outputs": [
        {
          "internalType": "uint256",
          "name": "",
          "type": "uint256"
        }
      ],
      "stateMutability": "view",
      "type": "function"
    },
    {
      "inputs": [],
      "name": "reserveA",
      "outputs": [
        {
          "internalType": "uint256",
          "name": "",
          "type": "uint256"
        }
      ],
      "stateMutability": "view",
      "type": "function"
    },
    {
      "inputs": [],
      "name": "reserveB",
      "outputs": [
        {
          "internalType": "uint256",
          "name": "",
          "type": "uint256"
        }
      ],
      "stateMutability": "view",
      "type": "function"
    },
    {
      "inputs": [
        {
          "internalType": "uint256",
          "name": "amountA",
          "type": "uint256"
        }
      ],
      "name": "swapAtoB",
      "outputs": [
        {
          "internalType": "uint256",
          "name": "amountB",
          "type": "uint256"
        }
      ],
      "stateMutability": "nonpayable",
      "type": "function"
    },
    {
      "inputs": [],
      "name": "tokenA",
      "outputs": [
        {
          "internalType": "address",
          "name": "",
          "type": "address"
        }
      ],
      "stateMutability": "view",
      "type": "function"
    },
    {
      "inputs": [],
      "name": "tokenB",
      "outputs": [
        {
          "internalType": "address",
          "name": "",
          "type": "address"
        }
      ],
      "stateMutability": "view",
      "type": "function"
    }
  ],
  "bytecode": "0x608060405234801561001057600080fd5b50604051610d11380380610d118339818101604052810190610032919061011d565b816000806101000a81548173ffffffffffffffffffffffffffffffffffffffff021916908373ffffffffffffffffffffffffffffffffffffffff16021790555080600160006101000a81548173ffffffffffffffffffffffffffffffffffffffff021916908373ffffffffffffffffffffffffffffffffffffffff160217905550505061015d565b600080fd5b600073ffffffffffffffffffffffffffffffffffffffff82169050919050565b60006100ea826100bf565b9050919050565b6100fa816100df565b811461010557600080fd5b50565b600081519050610117816100f1565b92915050565b60008060408385031215610134576101336100ba565b5b600061014285828601610108565b925050602061015385828601610108565b9150509250929050565b610ba58061016c6000396000f3fe608060405234801561001057600080fd5b506004361061007d5760003560e01c80639cd441da1161005b5780639cd441da146100dc578063da0d6735146100f8578063dc5fa6c514610128578063e1d3be6b146101465761007d565b80630fc63d101461008257806319e36f3b146100a05780635f64b55b146100be575b600080fd5b61008a610164565b60405161009791906106c3565b60405180910390f35b6100a8610188565b6040516100b591906106f7565b60405180910390f35b6100c661018e565b6040516100d391906106c3565b60405180910390f35b6100f660048036038101906100f19190610743565b6101b4565b005b610112600480360381019061010d9190610783565b61037d565b60405161011f91906106f7565b60405180910390f35b610130610600565b60405161013d91906106f7565b60405180910390f35b61014e610606565b60405161015b91906106f7565b60405180910390f35b60008054906101000a900473ffffffffffffffffffffffffffffffffffffffff1681565b60035481565b600160009054906101000a900473ffffffffffffffffffffffffffffffffffffffff1681565b6000821180156101c45750600081115b610203576040517f08c379a00000000000000000000000000000000000000000000000000000000081526004016101fa9061080d565b60405180910390fd5b60008054906101000a900473ffffffffffffffffffffffffffffffffffffffff1673ffffffffffffffffffffffffffffffffffffffff166323b872dd3330856040518463ffffffff1660e01b81526004016102609392919061082d565b6020604051808303816000875af115801561027f573d6000803e3d6000fd5b505050506040513d601f19601f820116820180604052508101906102a3919061089c565b50600160009054906101000a900473ffffffffffffffffffffffffffffffffffffffff1673ffffffffffffffffffffffffffffffffffffffff166323b872dd3330846040518463ffffffff1660e01b81526004016103039392919061082d565b6020604051808303816000875af1158015610322573d6000803e3d6000fd5b505050506040513d601f19601f82011682018060405250810190610346919061089c565b50816002600082825461035991906108f8565b92505081905550806003600082825461037291906108f8565b925050819055505050565b60008082116103c1576040517f08c379a00000000000000000000000000000000000000000000000000000000081526004016103b890610978565b60405180910390fd5b60006002541180156103d557506000600354115b610414576040517f08c379a000000000000000000000000000000000000000000000000000000000815260040161040b906109e4565b60405180910390fd5b60008260025461042491906108f8565b600354846104329190610a04565b61043c9190610a75565b9050600354811115610483576040517f08c379a000000000000000000000000000000000000000000000000000000000815260040161047a90610af2565b60405180910390fd5b60008054906101000a900473ffffffffffffffffffffffffffffffffffffffff1673ffffffffffffffffffffffffffffffffffffffff166323b872dd3330866040518463ffffffff1660e01b81526004016104e09392919061082d565b6020604051808303816000875af11580156104ff573d6000803e3d6000fd5b505050506040513d601f19601f82011682018060405250810190610523919061089c565b50600160009054906101000a900473ffffffffffffffffffffffffffffffffffffffff1673ffffffffffffffffffffffffffffffffffffffff1663a9059cbb33836040518363ffffffff1660e01b8152600401610581929190610b12565b6020604051808303816000875af11580156105a0573d6000803e3d6000fd5b505050506040513d601f19601f820116820180604052508101906105c4919061089c565b5082600260008282546105d791906108f8565b9250508190555080600360008282546105f09190610b3b565b9250508190555080915050919050565b60025481565b60008060025411801561061b57506000600354115b61065a576040517f08c379a0000000000000000000000000000000000000000000000000000000008152600401610651906109e4565b60405180910390fd5b600254670de0b6b3a76400006003546106739190610a04565b61067d9190610a75565b905090565b600073ffffffffffffffffffffffffffffffffffffffff82169050919050565b60006106ad82610682565b9050919050565b6106bd816106a2565b82525050565b60006020820190506106d860008301846106b4565b92915050565b6000819050919050565b6106f1816106de565b82525050565b600060208201905061070c60008301846106e8565b92915050565b600080fd5b610720816106de565b811461072b57600080fd5b50565b60008135905061073d81610717565b92915050565b6000806040838503121561075a57610759610712565b5b60006107688582860161072e565b92505060206107798582860161072e565b9150509250929050565b60006020828403121561079957610798610712565b5b60006107a78482850161072e565b91505092915050565b600082825260208201905092915050565b7f496e76616c696420616d6f756e74730000000000000000000000000000000000600082015250565b60006107f7600f836107b0565b9150610802826107c1565b602082019050919050565b60006020820190508181036000830152610826816107ea565b9050919050565b600060608201905061084260008301866106b4565b61084f60208301856106b4565b61085c60408301846106e8565b949350505050565b60008115159050919050565b61087981610864565b811461088457600080fd5b50565b60008151905061089681610870565b92915050565b6000602082840312156108b2576108b1610712565b5b60006108c084828501610887565b91505092915050565b7f4e487b7100000000000000000000000000000000000000000000000000000000600052601160045260246000fd5b6000610903826106de565b915061090e836106de565b9250828201905080821115610926576109256108c9565b5b92915050565b7f496e76616c696420616d6f756e74000000000000000000000000000000000000600082015250565b6000610962600e836107b0565b915061096d8261092c565b602082019050919050565b6000602082019050818103600083015261099181610955565b9050919050565b7f4e6f206c69717569646974790000000000000000000000000000000000000000600082015250565b60006109ce600c836107b0565b91506109d982610998565b602082019050919050565b600060208201905081810360008301526109fd816109c1565b9050919050565b6000610a0f826106de565b9150610a1a836106de565b9250828202610a28816106de565b91508282048414831517610a3f57610a3e6108c9565b5b5092915050565b7f4e487b7100000000000000000000000000000000000000000000000000000000600052601260045260246000fd5b6000610a80826106de565b9150610a8b836106de565b925082610a9b57610a9a610a46565b5b828204905092915050565b7f496e73756666696369656e74206c697175696469747900000000000000000000600082015250565b6000610adc6016836107b0565b9150610ae782610aa6565b602082019050919050565b60006020820190508181036000830152610b0b81610acf565b9050919050565b6000604082019050610b2760008301856106b4565b610b3460208301846106e8565b9392505050565b6000610b46826106de565b9150610b51836106de565b9250828203905081811115610b6957610b686108c9565b5b9291505056fea2646970667358221220e69294d49fc077c9af11ea9ba1703ab04b91f958d3cd8197286393f9d21bdab464736f6c634300081c0033",
  "linkReferences": {},
  "deployedLinkReferences": {}
}